:020000040808EA
:100000000000080844400808000005000A00050137
:080010000402E80300000000F7
:10001800DC3A080809480A4908B5884205D0094A5F
:10002800824202D0121A03F012FD0748074A002143
:10003800121A03F017FD064808BD00BF000400208F
:10004800B43F080868040020680400202C0F002032
:100058002C0F002070B502F025FA074B074C1E46FE
:10006800E41AA4080025A54204D056F8253098477C
:100078000135F8E770BD00BF383F0808B03F0808F1
:1000880000F06CB808B500F03BF9BDE8084002F094
:10009800CBB901F04DBF0078B0FA80F04009704745
:1000A800012303707047037C024603F0080303F042
:1000B800FF002BB1D36A506A181A48BF6FF000408E
:1000C8007047704710B50446FFF7E3FF204610BDA0
:1000D800103000F0D7BE103000F003BE103000F032
:1000E8005DBF07B502AB03F8011D012219461030A8
:1000F80000F054FF03B05DF804FB00F2644001F027
:1001080006BC00F2644001F03ABB00F2644001F022
:1001180079BB00F2644001F0EABA07B501220DF19B
:10012800070100F02AFD01280CBF9DF807004FF0D9
:10013800FF3003B05DF804FB08B51030FFF7EDFFA2
:1001480008BD38B50D46044602F06CFA2A46014649
:100158002046BDE8384001F0E3BC000038B5002374
:100168001A461946184601F0C3FE544B0121188857
:1001780002F0DAFB41F2883002F066F8504C02F0E7
:1001880051FA02F037FA28B901F08EFD206001F02B
:10019800B7FEF4E702F046FA4A4901F0C8FF484CB6
:1001A80002F040FA03685B699847002805DC01F013
:1001B8007BFD206001F0A4FEF2E7434904230C22F2
:1001C800A1F10C0001F0FFF900286FD03F4800F0C2
:1001D8008FFE01213E4801F0C9F8014648B13C4C68
:1001E80004F588652146284600F0AFFC00285DD05C
:1001F80005E0374801F0BAF80028F0D156E094F845
:10020800403413F0700F51D0324B1D60314C6323D2
:10021800314A2168314800F072FE254618B9304944
:100228002B48FFF78EFF2F4C02F0FCF92E4901F006
:100238006BFF2E49204601F07AFFE36A2C4A002121
:10024800204601F0B4FF04F1100000F051FE02F066
:10025800E9F9284901F06BFF01231F4A296804F1D5
:10026800100000F04CFE18B923491948FFF769FF40
:1002780002F0D8F9214901F05AFF1848FFF74DFF5D
:10028800041E06DB02F0CEF90368E1B29B689847CA
:10029800F3E7124800F02CFE41F2883001F0D4FF59
:1002A80002F0C0F9BDE8384002F09EB902F0BAF990
:1002B8000146074801F06EFCA8E700BF6C04002067
:1002C800500E0020303B080824090020F4080020C4
:1002D800B4040020340900204C3B0808880400209E
:1002E800533B080878040020773B08088C3B080833
:1002F8009D3B0808AB3B0808B13B0808D43B0808FD
:1003080070B51E489EB002F017F805461B4802F06B
:1003180029F81B49064663231A4A09681A4800F057
:10032800EEFD18B919491A48FFF70BFF304602F0DD
:100338005DFECDE90201284602F058FE154C164A2A
:100348002368CDE90001642105A801F0F9FD05A99C
:10035800124801F0ECFE0C4800F0CAFD104B197869
:10036800104B81F00101188802F0EFFA236864202D
:100378000133236001F068FF1EB070BD2C09002016
:10038800340900204C3B080888040020E43B080896
:10039800B404002070040020083C080878040020F9
:1003A800740400206C04002037B501F0FDFB4FF603
:1003B8009C73234C002563804FF6FF730320A380B2
:1003C800257001F069FD02A840F8045D2A46294617
:1003D80001F072FC019B1E2B04D10323237011230F
:1003E8006580A3800021174801F066FF164A174967
:1003F800144802F049FB164A1921164882F86A1473
:1004080015490023D37182F8403482F8413482F8C8
:10041800683482F86D34116082F874340F490374BB
:10042800437443604FF47A7383600D4BC2F87014C1
:10043800054A0C49036002F027FB03B030BD00BF3A
:10044800AC0400202C09002068040020DF220808E2
:10045800B404002078040020203B0808303C080839
:10046800F83A0808CB00080801F09EBB01F09CBBD5
:1004780001F09ABB10B50446283000F071FE28B18F
:1004880004F50D70BDE8104000F06ABE10BD411EB5
:1004980000F10A020020430843EAC01011F8013FA6
:1004A80018448A4200F0FF00F5D170472DE9F04763
:1004B8000378441C202B01D12046F9E70546704FEC
:1004C80088602C1A2E4615F8013B0BB32F2B01D14F
:1004D800031917E05C2B02D10020BDE8F087A3F1D7
:1004E8002204E4B21D2C03D827FA04F4E407F3D459
:1004F80003F0BF043C2CEFD0203B5E2BE1D9EBE7A7
:100508002F2D05D11E4613F8015B202DF8D1F9E7F0
:10051800166003199842C0EB030809D013F8012D9F
:100528002E2AF7D0202AF5D0B8F1FF0FD4DC01E04D
:100538004FF00008C1F8048001F10C0301F1170223
:10054800202403F8014F9342FBD103461A1A13F8EB
:10055800014B2E2CFAD0202CF8D0B2FA82F408F1F4
:10056800FF366409731C07D100274FF0070E3D467C
:10057800BA464FF0080909E0835D2E2BF4D0013EFE
:10058800F0E7835C202B04D1002401324245F8DBDC
:100598004BE02E2B02D1B242F6D103E0222B17D02A
:1005A8007C2B15D0A3F12A0CBCF1050F01D82D2BFB
:1005B8000ED1A3F13A0CBCF1050F09D9A3F15B0CDC
:1005C800BCF1020F04D9A3F1210CBCF15D0F02D9D3
:1005D800B2420ED149E0B24247D0754521D8A3F1C5
:1005E800610CBCF1190F08D8203BDBB249EA0707B8
:1005F8000AE0754515D800245F23A3F1410CBCF12E
:10060800190F98BF49EA0A0A05F1010C5FFA8CFC38
:100618000D44BCF1060F6B7301D881F80CC0654618
:10062800B3E7BEF10A0F17D100244B7B202B3FF410
:1006380053AF3CB11AEA070F18BF02270F70012009
:10064800BDE8F0870B7B0120087019447E234B73AB
:1006580031238B73BDE8F087B242E5DC32464FF0B8
:100668000A0E08254FF010098EE7BEF10A0FDBD0FD
:1006780032464FF00A0E08254FF0100985E700BFF3
:10068800010100312DE9F84306460D4691F80C901A
:1006980002247E2701F10D086968AA6863189BB2D5
:1006A8001144914206D012F8010B03EB4313434067
:1006B8009BB2F6E7B9F1030F28BF4FF0030909F120
:1006C8000402D2B203F00F01A818013A0929D2B2E4
:1006D80094BF30313731914541734FEA1313F1D349
:1006E80005EB09035F730021304600F02AFB012166
:1006F800304600F009FB014628B97078B0FA80F05E
:100708004009BDE8F88303784BB1C37A1B07EED4E0
:100718000B22404603F08CF90028E8D102E00120C2
:10072800BDE8F8830134A4B2642CB5D1BDE8F883E0
:100738002DE9F04F89B003930B78059013F0700FF3
:100748000E46914601D1002099E1059B1B78002BAC
:10075800F9D11378D2F804B09B0700F086810BF129
:100768000C030D27B3FBF7F70137FFB24FF0000872
:100778000021304600F0E5FA45464346444609F173
:100788000D02CDF80880CDF810800692726901211B
:1007980030460793C2F34F1A00F0B6FA079B20B908
:1007A8007378002B00F08E80CDE70278E52A00D020
:1007B80042B9002D08BFD046BD423CBF0135EDB25D
:1007C80022B97FE0BD4238BF002503E0E52A01D108
:1007D8000024DBE72E2AFBD0C17A0F2950D13CB97F
:1007E8005106D3D5437B02F01F040293234607E04A
:1007F800013BDBB29A42EBD1427B02999142E7D1AD
:100808005A1E4FF00D0C0CFB02FCE345E0D94FF0EB
:10081800000EBEF1040F5FFA8EF204D800EB4E0210
:10082800B2F801200CE00A2A95BF0EF1FF320EF152
:10083800010200EB420200EB420294BFD288928888
:10084800E34503D1002A18BF00249FE7FF2ABFD839
:10085800D2B2A2F141011929D9F8081098BF203263
:1008680011F80C100CF1010AA1F1410C98BFD2B299
:10087800BCF1190F9CBF2031C9B29142A8D1F6E052
:100888000A07A5D44CB1012B7FF45DAFFFF7FFFD3C
:10089800029B83427FF457AF0FE00B220699079320
:1008A80003F0C6F8079B00287FF470AF99F8002082
:1008B800D10702D50122049268E7039B1A0640F18A
:1008C800CC8040E7039B03F04203422B7FF43BAF0D
:1008D800002D08BFD046BD4202D3049BCBB91FE010
:1008E8000021304600F010FA10B973785BB12AE79E
:1008F8000135EDB2EFE7B3681B79012BEDD8103560
:10090800EDB2AF42E9D9304600F0D0F80028F2D174
:1009180019E749463046FFF7B5FE00283FF413AF04
:100928004FEA4811304600F00CFA00283FF40BAFAC
:100938007C1EE4B225464FF0000A4FF00F0840E055
:100948000021304600F0E0F9074600283FF4FBAEEE
:10095800B268A54292F8283043F0010382F82830A3
:1009680014BF2A4645F04002027080F80B8080F8D8
:100978000CA009F10D000292FFF789FD029A787325
:1009880087F81AA087F81BA002F01F020D23013A6E
:10099800D9F808E05A430023934515D91EF80210E8
:1009A800042B5FFA83FC03F1010013D807EB430320
:1009B800A3F801100D2802F101020346ECD1013D14
:1009C800EDB2002DBCD10EE014BF4FF0FF31002175
:1009D80089B2E5E7BCF10A0F94BF07EB430307EBC5
:1009E80040039980E6E7736929463046C3F34F1AF6
:1009F80000F08AF9074600283FF4A5AE20222946D0
:100A080003F030F84B4653F80D2F3A605A687A6075
:100A18001A893A819B7ABB7299F8003003F018035F
:100A28003B73184B1B682BB107F10E0107F110003F
:100A3800984706E021233B7428237B740823BD7361
:100A4800FB733B8A7B823B83FB89FB82B26892F80B
:100A5800283043F0010382F828300094039B524663
:100A68003146059800F0B6F909E001277EE60EF157
:100A7800010EBEF10D0F3FF489AED446C9E609B0A8
:100A8800BDE8F08F3809002001F08EB801F08CB86D
:100A980001F08AB801F088B8837800F1100263F099
:100AA8007F0383700169806800F004BC2DE9F04180
:100AB8000378044603F0200303F0FF050BB100267A
:100AC8002EE04269184B9A42F9D8FFF7E5FF06462F
:100AD8000028F4D02169A06800F08DFB0746A068C3
:100AE80005223946283000F062FB80460028E6D00F
:100AF80029464FF4007202F0B5FF0125A06802797B
:100B0800AA4209D9036842465B68E9199847002850
:100B1800D5D00135EDB2F1E7636903EB4223636198
:100B28003046BDE8F08100BFFFFD1F0010B5044648
:100B380080680A462830A16900F039FB20B1A388F3
:100B480003F00F0300EB431010BD70B504780546A1
:100B58000E4684B92422214602F084FFAE60F37960
:100B6800102B03D0202B06D1402300E020230120A6
:100B78002B70A87070BD002070BD2DE9F74F037869
:100B88000446894615464BB18278D10706D50CE054
:100B98005A46216900F035FB00283DDA63784FF0AA
:100BA800FF3043F00203637098E01A0703D5E36946
:100BB80062699B1A07E09A0608D5A3681A896369CF
:100BC800C3EB42139BB29D4228BF1D462E464FF0F1
:100BD800000804F1100B002E35D02278636912F05A
:100BE800200FC3F3080AA0684FEA532102D0036A12
:100BF80019441DE090F8058001EA0808BAF1000FD1
:100C080010D1B8F1000F0DD1002BC1D153064CBF44
:100C1800036A236A236105E004D1237813F0700F77
:100C280011D1BBE72169A06800F0E5FA08EB0001E3
:100C3800A068BAF1000F35D1B6F5007F32D3026B48
:100C4800914202D12EE0A81B48E0B6F5806F1BD375
:100C58002778C6F34723BF0606D40779C8EB0707EA
:100C6800FFB2BB4228BF3B4691424FEA432707D217
:100C7800A0680268D2F808A04A46D04760B98DE754
:100C88001A44914221D3F3E703684A461B68984700
:100C9800002883D04FF400776369B9443B4463610B
:100CA800F61B98E70022283000F081FA00283FF46C
:100CB80075AFCAF50077B74228BF374600EB0A017F
:100CC8003A46484602F0C3FEE6E78DE80A00FFF719
:100CD800D1FB9DE80A000028CAD15FE703B0BDE850
:100CE800F08F73B501220DF10701044646690569C5
:100CF800FFF743FF012809BF9DF807004FF0FF30B9
:100D08006661256102B070BD37B543690446C3F317
:100D1800431505B169B901220DF107012046FFF716
:100D28002CFF40B2012801D0002008E063691F337E
:100D380000E02033A0686361343000EB451003B055
:100D480030BD2DE9F0410E460178044607690029B7
:100D580039D04569B5423AD00EB9066131E00B0782
:100D680003D5C3699E422ED807E0880605D5A36837
:100D78001B89B6EB431F26D823E0D4F808E06A1E87
:100D88009EF8063003F10900731EC240C3409A4220
:100D980000D84DB94A064CBFDEF82020226A2261ED
:100DA8001D4604F110080AE09B1AF9E7424621693A
:100DB800A06800F026FA002805F1FF3503DD002DB4
:100DC800F4D1666103E027610020BDE8F0810120CD
:100DD800BDE8F081F8B50F460446164600212422E6
:100DE8001D4602F03FFEB868A680A0603B6A06F088
:100DF8000F02E360520100F134031344D97A0F075C
:100E080002D500202070F8BD811891F83F1001F03C
:100E180017012170DB7A13F0180F08BF41F00801A1
:100E28009DF8183008BF217015F0320FE37003D019
:100E3800237813F0110FE4D105F00F03A370036BAF
:100E48000244A361B2F84830B2F84E10EE0641EA07
:100E5800034104D571B100F068FA58B9D1E72162AD
:100E6800136DE361AB060AD5E1692046FFF769FF18
:100E780028B9C6E7A37863F07F03A370F2E70120DF
:100E8800F8BD000038B5037804460BB9012038BD19
:100E980090F90230002B23DA0121FFF747FE0546BF
:100EA80028B96378002043F00103637038BD0378E4
:100EB800E52BF6D023781B0744BFE369C361238C75
:100EC8004383638C8382094B1B682BB100F11601A5
:100ED800183098472B8B6B82A37803F07F03A3709D
:100EE800A068FFF7C7FA0028DBD0CFE73809002051
:100EF80010B50446FFF7C6FF0023237010BDF0B5F8
:100F08001F4693B000238DF824308DF825300378E0
:100F180006460C4601920BB100203DE00B7813F019
:100F2800700FF9D013782F2B12D1019B1A782F2A22
:100F380002D101330193F8E7A1681AB93046FFF7E7
:100F480004FE29E009A8FFF700FE0028E4D009AC58
:100F580001AA03A90198FFF7A9FA0028DCD0019B90
:100F68001B789BB1012303AA21463046FFF7E0FB1B
:100F78000028D1D0354609AC0FCD0FC40FCD0FC412
:100F88002B6830462360FFF7B3FFE0E73B4603AA30
:100F980021463046FFF7CCFB13B0F0BD2DE9F047F2
:100FA800037804461D078946904608D58378990733
:100FB80005D55B070BD5E169FFF7C3FE38B9637840
:100FC8004FF0FF3043F001036370BDE8F0876369B9
:100FD800DB439845F3D847464FF0000A6369002F72
:100FE80000F08280A068C3F30806457915EA532506
:100FF8001CD1DEB9216971B104F1100200F001F9C8
:101008000028DCDB40F08E802046FFF745FD0028F5
:1010180040F08880D3E7236A3BB92046FFF73CFDC0
:101028000028CCD02369236200E023612169A068ED
:1010380000F0E1F8291816B9B7F5007F21D2C6F5F6
:101048000075BD4228BF3D4636B96369E2699342DF
:1010580034BF0122052200E00122A068283000F0F8
:10106800A6F80028ABD030442A4649462E4402F060
:10107800EEFCB6F5007F31D1A068283000F070F89A
:1010880018E0B7F5806FA26816D31379106B5D1B53
:10109800EDB2C7F34723AB4228BF2B4681424FEA44
:1010A800432502D31844814236D3A0680268D66823
:1010B8004A46B04790B982E7136B994202BF4FF096
:1010C800FF3382F828A01363A0684A4603685B6868
:1010D800984700283FF473AF4FF400756369A9443B
:1010E8002B4463617F1B79E7E2699342A27801D9B7
:1010F800E36102E00E4B1B6813B162F07F02A2703D
:10110800A3781A0702D44046BDE8F0872046FFF7C7
:10111800B9FE0028F7D152E74FF0FF3082F828A037
:101128001063C2E72169A06800F065F8014683E70B
:101138003809002000F038BD70B505460C46084651
:1011480049B102F0BFFC2B68024621462846BDE89B
:101158007040DB68184770BD00F026BD00F024BD64
:10116800F8B503780446DA071ED5406804F10C0682
:10117800036832465B68A1689847054608B90025A8
:1011880013E023789B0704D4237823F0010323700A
:101198000BE06068A7680169036832465B683944F8
:1011A80098470028F0D1EAE701252846F8BD70B530
:1011B800836804468B420E46154614D0FFF7D0FFCD
:1011C80008B9002070BD6B0703D500232370A66003
:1011D80009E0606804F10C02036831461B6898470F
:1011E8000028F2D1EDE72046237805F003051D43DA
:1011F80000F80C5B70BD8379023940699940084456
:10120800704770B5C3790546202B0C46164612D197
:101218008169022201EBD41100F50D70FFF7C7FFB9
:1012280010B94FF0FF3070BD04F07F0450F824303F
:1012380023F070430FE0102BF3D18369C1F307212A
:101248000222194400F50D70FFF7B1FF0028E8D01D
:10125800E4B230F81430EA6993429ABF336001204F
:10126800002070BD38B5C3790C46202B15460FD128
:101278008169032201EBD41100F50D70FFF797FF88
:1012880008B9002038BD04F07F0440F824500FE06E
:10129800102BF6D18369C1F307210322194400F505
:1012A8000D70FFF784FF0028EBD0E4B220F814504B
:1012B800012038BD2DE9F341054690460F4609B98E
:1012C800C66800E00E463446EB6901349C4288BF8C
:1012D800022401AA21462846FFF793FF00280DDBC8
:1012E80001D0019B13B1B442EED107E06FF0704218
:1012F80021462846FFF7B6FF064608B9002610E043
:1013080037B1224639462846FFF7ACFF08B9F5E75A
:10131800EC606B6A002BA4BF03F1FF336B62C8F863
:101328000040304602B0BDE8F08173B504460D4672
:1013380001AA29462046FFF764FF061E01DA0020AD
:1013480012E0002229462046FFF78CFF0028F6D03D
:10135800636A002BA4BF01336362E3689D4238BF10
:10136800E560019D002EE3D102B070BD70B5044662
:1013780001230022C3604FF0FF33C2710D46E062C3
:1013880080F828200363C4F8380280F83422C0F8B3
:101398003C32A1B1042960D811462830FFF707FF75
:1013A80000285AD000EB051393F8AE315B0654D1F0
:1013B8001B3500EB0515D5F80650002D4DD0002241
:1013C800294604F12800FFF7F2FE002845D0B0F8BE
:1013D8000B30B3F5007F40D1037C022B3DD1C3898C
:1013E800002B3AD0417B09264B1E63710023A37161
:1013F800217101238B4207D0013E2ED0A2795B00D8
:101408000132DBB2A271F5E7C28A02B9426A2261EF
:10141800C6892E44A661B0F8113006EB420123813B
:101428002162B0F81120520102F2FF1201EB622290
:101438006261B0F8133003B9036AAD1A2B44A57979
:1014480023FA05F56B1CE3614FF0FF33636240F646
:10145800F4739D4203D80C23E371002070BD4FF64E
:10146800F4739D4289BFC36A102323622023E3716A
:10147800012070BD00F098BB00F096BB00F094BB53
:1014880003685B6918470368DB68184710B5037978
:1014980004466BB10121407901F057FAFF21206819
:1014A800FFF7EEFF206803689B68984700232371C5
:1014B80010BD38B50579044655B90068E179036867
:1014C8005B6898472946607901F03FFA0123237148
:1014D80038BDF8B504460D46164600F0E5FB07464C
:1014E8002068FFF7D0FFFF28207207D100F0DCFB4F
:1014F800C01BB0F5967FF3D911230CE0FE2801D06C
:101508000F2308E020683246036829461B6998477C
:10151800207230B11C232046A371FFF7B7FF0020CB
:10152800F8BD2068FFF7AFFF2068FFF7ACFF012088
:10153800F8BD70B506460C4600F0B6FB05463068A7
:10154800FFF7A1FFFF2806D000F0AEFB401BA0422A
:10155800F5D3002070BD012070BDF7B503790446AE
:101568000D4601920BB9FFF7A4FF4FF41671204600
:10157800FFF7DFFF45F040012068FFF781FF0DF11D
:1015880007060DF1030716F801192068FFF778FF21
:10159800BE42F8D1002D0CBF952187212068FFF7A6
:1015A8006FFF0C2D02D12068FFF76DFF0025206822
:1015B800FFF769FF0306207203D50135B5F5807F73
:1015C800F5D103B0F0BDF8B51F4600234271437250
:1015D80083710160044600F067FB06462068617964
:1015E80003680A251B68984780212068E171036811
:1015F8005B689847FF212068013DFFF741FF15F020
:10160800FF05F7D1206803689B68984700221146B8
:101618002046FFF7A2FF012807D000F045FB801BFA
:10162800B0F5FA6FF2D9012348E04FF4D5720821DA
:101638002046FFF792FF052801D101230BE004257E
:101648002068FFF720FF013D15F0FF052072F7D154
:10165800AA2808D102236372637A022B0CBF4FF0C9
:101668008045002507E000F01FFB801BB0F5FA6FEE
:10167800DBD9022322E0002237212046FFF76DFF45
:101688002A4629212046FFF768FF024638B100F0B4
:101698000BFB801BB0F5FA6FEDD90A230EE0637AD5
:1016A800022B05D02046FFF7F1FEE7710120F8BDB7
:1016B8003A212046FFF751FF30B108232046A37195
:1016C800FFF7E4FE0020F8BD2068FFF7DCFE00F01D
:1016D800C000C02804BF032363722068FFF7D3FE4D
:1016E8002068FFF7D0FE2068FFF7CDFEDAE738B5AF
:1016F800437A1546032B18BF49020A4611210446AE
:10170800FFF72BFF10B10423A3710BE029464FF418
:1017180000722046FFF7DDFE054618B12046FFF7A8
:10172800B5FE03E02046FFF7B1FE0025284638BD88
:1017380010B5437A0A46032B18BF4A021221044601
:10174800FFF70BFF30B105232046A371FFF79EFE7C
:10175800002010BD012010BD10B500220C21044648
:10176800FFF7FBFE30B103232046A371FFF78EFE7F
:10177800002010BD2046FFF789FE012010BDF8B5F6
:10178800054616461F46FFF7D3FF98B10024A3B2BB
:101798009F4206EB442108D94FF400722846FFF710
:1017A80098FE01340028F2D104E02846BDE8F8404C
:1017B800FFF7D2BF0020F8BD38B5044615460068CB
:1017C800FFF75EFE20684FF40072036829469B69A4
:1017D8009847FF212068FFF753FEFF212068FFF795
:1017E8004FFE2068FFF74FFE207200F01F0005280B
:1017F80006D013232046A371FFF748FE002038BD0A
:10180800012038BD38B5437A1546032B18BF490265
:101818000A4618210446FFF7A0FE10B10623A3715B
:101828000AE02A46FE212046FFF7C6FF054618B102
:101838002046FFF72BFE03E02046FFF727FE002592
:10184800284638BD70B504460D460679FFF731FEC7
:101858004FF416712046FFF76CFE10B91723A371D9
:101868000BE02A46FC212046FFF7A6FF054620B1DB
:101878003EB92046FFF70AFE03E02046FFF706FEC2
:101888000025284670BD70B5044616460D46002250
:101898003721FFF762FE324617212046FFF75DFE2B
:1018A80008B109230AE0637A1921032B18BF6D02D6
:1018B8002A462046FFF751FE30B107232046A37180
:1018C800FFF7E4FD002070BD012070BD38B5044667
:1018D800FFF7EFFD4FF416712046FFF72AFE70B1AF
:1018E800FD212068FFF7CCFD4FF416712046FFF765
:1018F80020FE054618B12046FFF7C8FD05E0122373
:10190800A3712046FFF7C2FD0025284638BDF8B56B
:1019180017461A4605461E46FFF7B5FF70B1002464
:10192800B44207EB4421284604D0FFF78BFF28B1C7
:101938000134F5E7BDE8F840FFF7C8BF2846FFF7D0
:10194800A5FD0020F8BD00F02FB900F02DB900F07A
:101958002BB90000014B01221A7070473C09002086
:10196800704700000279024B53F8220000F014BBC4
:101978001C3C080870B506460C4603791A4D01212F
:1019880055F8230000F00EFB3379002155F82300A9
:1019980000F00BFB022C0CD9042C0CD9082C0CD908
:1019A800102C0CD9202C0CD9412C34BF28213021E3
:1019B80008E0002106E0082104E0102102E01821D7
:1019C80000E02021337955F8230000F037FB182375
:1019D80003FB04F132793C2302FB011191FBF3F183
:1019E800024B196070BD00BF1C3C0808400900206C
:1019F8000279034BFF2153F8220000F033BB00BFEC
:101A08001C3C08080279024B53F8220000F02ABB5C
:101A18001C3C080873B50C4B06790C4800250C4C87
:101A2800009350F8260013460A462946257000F010
:101A38001FFB2378002BFCD0064B186808B100F078
:101A48002BF9002002B070BD5D1908081C3C08087D
:101A58003C0900204009002073B50D4B06790D485C
:101A680000250D4C009350F8260013462A46257091
:101A780000F0FEFA2378002BFCD0084B186820B140
:101A880002B0BDE8704000F007B902B070BD00BFF9
:101A98005D1908081C3C08083C0900204009002082
:101AA80000F082B808B500F0FFF8014B186008BDD7
:101AB800500E002038B590F86A3405460C46ABB194
:101AC8000B49204600F020FB102295F86A142046A6
:101AD80000F061FB0749204600F016FB95F86C14EE
:101AE8002046BDE83840102200F057BB38BD00BF83
:101AF8004C3C08085D3C080870B50C46164605467F
:101B08000649204600F000FB3146204600F00FFB56
:101B180021462846BDE87040FFF7CCBF613C080865
:101B280008B5FFF7E9FFFFF7BDFF00F0E9F9FAE7AD
:101B380038B590F86A3405460C468BB110492046F2
:101B480000F0F5FA95F86A34012B03D10D492046C7
:101B580000F0EDFA21462846BDE83840FFF7AABF55
:101B6800C3790BB9084905E090F840340BB9074927
:101B780000E007492046BDE8384000F0D8BA00BF69
:101B8800693C0808903C0808C03C0808DD3C080887
:101B9800F83C080808B5FFF7CBFFFFF783FF00F014
:101BA800AFF9FAE700F000B808B5024B1B681B68EC
:101BB800019308BDB001040808B5024B1B689B6877
:101BC800019308BDB001040808B5024B1B68DB6827
:101BD800019308BDB001040808B5024B1B681B69D6
:101BE800019308BDB001040808B5024B1B681B68C7
:101BF800019308BDB401040808B5024B1B689B6833
:101C0800019308BDB401040808B5024B1B68DB68E2
:101C1800019308BDB401040808B5024B1B681B6991
:101C2800019308BDB401040808B5024B1B685B6941
:101C3800019308BDB401040808B5024B1B68DB69B1
:101C4800019308BDB401040808B5024B1B681B6A60
:101C5800019308BDB401040808B5024B1B685B6A10
:101C6800019308BDB401040808B5024B1B689B6AC0
:101C7800019308BDB401040808B5024B1B689B6BAF
:101C8800019308BDB401040808B5024B1B685B68E2
:101C9800019308BD9C01040808B5024B1B68DB686A
:101CA800019308BD9C01040808B5024B1B685B69D9
:101CB800019308BD9C01040808B5024B1B68DB6E44
:101CC800019308BDB801040808B5024B1B681B6BDB
:101CD800019308BDD001040808B5024B1B689B6935
:101CE800019308BDC401040808B5024B1B685B6A70
:101CF800019308BDC401040808B5024B1B689B6A20
:101D0800019308BDC401040808B5024B1B68DB6ACF
:101D1800019308BDC401040808B5024B1B681B6B7E
:101D2800019308BDC401040808B5024B1B685B6B2E
:101D3800019308BDC401040808B5024B1B689B6BDE
:101D4800019308BDC401040808B5024B1B681B6C4D
:101D5800019308BDC401040808B5024B1B685B6900
:101D6800019308BDAC01040808B5024B1B689B69C8
:101D7800019308BDAC01040808B5024B1B68DB6978
:101D8800019308BDAC01040808B5024B1B681B6A27
:101D9800019308BDAC01040808B5024B1B685B6AD7
:101DA800019308BDAC01040808B5024B1B689B6A87
:101DB800019308BDAC01040808B5024B1B68DB6A37
:101DC800019308BDAC01040808B5024B1B681B6BE6
:101DD800019308BDAC01040808B5024B1B685B6B96
:101DE800019308BDAC01040808B5024B1B681B6CC5
:101DF800019308BDAC01040808B5024B1B689B6C35
:101E0800019308BDAC01040808B5024B1B68DB6CE4
:101E1800019308BDAC01040808B5024B1B681B6898
:101E2800019308BD1C00060808B5024B1B689B6897
:101E3800019308BD1C00060808B5024B1B681B6906
:101E4800019308BD1C00060808B5024B1B685B69B6
:101E5800019308BD1C00060808B5024B1B689B6966
:101E6800019308BD1C00060808B5024B1B68DB6916
:101E7800019308BD1C00060808B5024B1B681B6AC5
:101E8800019308BD1C00060808B5024B1B685B6A75
:101E9800019308BD1C00060808B5024B1B685B6867
:101EA800019308BDA401040808B5024B1B685B69CF
:101EB800019308BDA401040808B5034B1B68D3F8B7
:101EC8009030019308BD0000A401040808B5034B35
:101ED8001B68D3F89C30019308BD0000A4010408D6
:101EE80008B5024B1B681B69019308BDC8010408AB
:101EF80008B5024B1B689B69019308BDC80104081B
:101F080008B5024B1B689B68019308BDCC01040807
:101F180008B5024B1B68DB6B019308BDCC010408B4
:101F280008B5024B1B681B68019308BDA001040893
:101F380008B5024B1B685B68019308BDA001040843
:101F480008B5024B1B68DB69019308BDA0010408B2
:101F580008B5024B1B685B6A019308BDA001040821
:101F6800704710B50446FEF794F8204610BD0000EF
:101F780070B504460E46074B0025036040F80C5F19
:101F8800FFF7A2FE30462671FFF756FEA5602046F1
:101F980070BD00BF103D08082E2902D80079FFF750
:101FA80023BE70470079FFF727BE0079FFF72CBEE4
:101FB800054A0023995C814202D00133082BF9D1EC
:101FC800581CC0B2704700BF183D0808400830B51B
:101FD800186000241868E5B2884206D90134082C34
:101FE80002D040081860F5E70725024B5B5D1370C7
:101FF80030BD00BF183D080870B5044602FB01F566
:1020080088B006791422002103A801F02BFD0B23C8
:1020180003A930460022ADF80C30FFF71DFE02ABD5
:102028000DF1070229460498FFF7D0FF20799DF8A3
:102038000710FFF7F1FD029808B070BD38B50446E7
:10204800A56808464DB1FFF7B3FF012225FA00F154
:102058002046BDE83840FFF7CFBF2079BDE83840BB
:10206800FFF7DABD08B50079FFF7DEFDC0B208BD9D
:1020780030B587B00A9D044600790095FFF7F4FD56
:102088003DB902A92079FFF7F7FD9DF81430DB0769
:10209800F7D407B030BD0079FFF7D6BD4FF69C7373
:1020A80037B50D4C002563804FF6FF732846A38093
:1020B8002570FFF7F1FE02A840F8045D2A4629467C
:1020C800FFF7FAFD019B1E2B04D103232370112374
:1020D8006580A38003B030BD44090020F8B50646EA
:1020E8000D468F180024BD420CD0336815F8011B2B
:1020F8009B6830469847002801DB0444F3E7002C2E
:1021080008BF04462046F8BD08B5FFF715F808BD16
:1021180003689B68184738B50D210546FFF7F8FF97
:102128000A2104462846FFF7F3FF204438BD38B596
:102138000546FFF701F804462846FFF7ECFF204460
:1021480038BD012A98BF0A2230B50B468BB0002152
:102158008DF824100DF12304B3FBF2F505FB1233BF
:10216800DBB2092B94BF30333733DBB2214604F896
:1021780001392B46002DEFD1FEF7DEFF0BB030BD45
:1021880010B422B90368C9B29B6810BC1847D2B210
:1021980010BCFFF7D6BFFFF7F3BF38B50546FFF70A
:1021A800EFFF04462846FFF7B6FF204438BD0CB4BD
:1021B8002DE9F04387B000AF07F1380454F8049BC9
:1021C80005460E4623464A461421381D3C60FFF753
:1021D800BFFE132805D8391D2846FEF7ADFF044673
:1021E80013E000F1080323F00703E846ADEB030D05
:1021F800411C23464A4668463C60FFF7A9FE6946EB
:102208002846FEF799FF0446C5461EB12846FFF743
:1022180082FF044420461C37BD46BDE8F04302B0A7
:1022280070470000014A024B1A607047D93D080800
:102238004C090020024B1A68024B1A60704700BF15
:1022480000040020500900200021FFF72DBE10B522
:102258008368044613B1032201469847204610BDFF
:1022680010B50446FFF7F3FF204610BD03480023CE
:102278008360034A034900F007BC00BF54090020EB
:10228800680400206922080808B5090941EA001015
:1022980001F01CFA014901F021FB08BD0000484487
:1022A800006800F00ABB10B50446016002710AB16B
:1022B800FFF7F6FF204610BD38B504460D4600F07E
:1022C800C3FB2A4601462046FFF7EDFF204638BDEE
:1022D800006800F0FBBA10B5037904460BB1FFF7AC
:1022E800F7FF204610BDF8B504460F4616461D46B2
:1022F800FFF7D6FF2068362100F0D4FA2068394667
:1023080003689B6898470121206800F0CEFA0222F2
:1023180036210123206800F0BCFA206803685B6955
:1023280098473070206803685B6998472870204692
:10233800BDE8F840FFF7CCBF07B5002202AB8DF827
:10234800062003F8012D02210DF10602FFF7CBFF4D
:102358009DF807109DF8060003B05DF804EBFFF741
:1023680093BF000013B5002202AB03F8012D8DF8CE
:10237800062004210DF10602FFF7B5FF9DF80700BE
:1023880000F022FE0022084B00F084FE01F094F8D1
:1023980004469DF8060001F099F90146204601F02F
:1023A800E1F802B010BD00BF0000703F08B5184B3F
:1023B80033B100F037F903681B69984700281EDC21
:1023C800144B33B100F0F8F903681B6998470028EB
:1023D80018DC114B0BB1AFF30080104B0BB1AFF30E
:1023E80000800F4B0BB1AFF300800E4B7BB100F0B8
:1023F80055F903681B699847002806DC08BDAFF348
:102408000080DDE7AFF30080E3E7AFF3008008BDAD
:1024180000000000000000000000000000000000B4
:10242800000000000000000008B5FFF7BFFFFFF73D
:102438003BFC014B186008BD500E00200248034ABF
:102448000349121A01F003BB004002400440024055
:10245800B03F080807B5002300931A466FF07701CC
:10246800FFF734FD03B05DF804FB000007B54388AF
:102478000A2B08D0502B09D1094B1B683BB103B07C
:102488005DF804EB1847FFF7E5FF06E0002300932B
:102498001A466FF07701FFF719FD03B05DF804FBEA
:1024A8006409002038B5104C104D2368AB42104B1E
:1024B8000CBF012200221A7002D0FFF7BFFF25606F
:1024C800FFF7E2FB01F0D6FA0A4B1BB1FFF7DCFB82
:1024D800AFF3008000210748FFF71AFDBDE8384038
:1024E80000210548FFF7E8BC004002401E1C279A5F
:1024F800680900200000000075240808704710B51E
:102508000446FDF7C6FD204610BDF8B50F4600F19C
:102518000806051D002416F8011D0A223846FFF793
:102528003AFEAE42044407D0002CF4D02E2138469F
:10253800FFF7EEFD0444EEE72046F8BD10B59DF820
:10254800084044EA032343EA024242EA0161416047
:1025580010BD000037B5044D05609DF81850009572
:10256800FFF7ECFF03B030BD343E080841747047F4
:1025780070470021007CFFF76FBC0121007CFFF74A
:102588006BBC007CFFF760BC007CFFF755BC38B51E
:102598000446007C0D46FFF757FC002801DC607CF0
:1025A80020B12946207CFFF75FFC012038BD007C64
:1025B800FFF762BC10B50446FDF76BFD204610BD61
:1025C80010B50446002363604FF47A73A360054B8B
:1025D800084623600123217463741146FFF71CFC2D
:1025E800204610BD483E0808007CFFF71DBC007C53
:1025F800FFF74ABCFFF7FBBF10B5044614220021C1
:1026080001F030FA054B20466360054BE36040F269
:10261800011323818123238210BD00BFF10900200B
:102628007009002030B50E4D87B001A8FFF7E4FF10
:10263800296811F0010410D12846FDF72CFD60B17E
:1026480001AA21460748FFF7BBFF2846FDF728FDEA
:10265800054A0649034800F017FA024807B030BD9A
:102668006C090020F40A0020680400207925080875
:1026780010B504461422002101F0F4F9054B204658
:102688006360054BE36040F20113238181232382B9
:1026980010BD00BFA40B00200C0B002010B50E4C81
:1026A80086B001A8FFF7E4FF2368DB0710D42046B3
:1026B800FDF7F1FC60B101AA01210848FFF780FF8E
:1026C8002046FDF7EDFC064A0649044800F0DCF90F
:1026D800024806B010BD00BF080B0020900B002078
:1026E8006804002079250808002211461046FFF7E3
:1026F800F7BB000038B50B4C28252A460021204698
:1027080001F0B0F94FF0FF3363602580064C074BAA
:1027180020462C2540F8043B2A46002101F0A2F966
:10272800A58038BDD80C0020A80C0020783E0808E9
:10273800704741747047007CFFF706BB007CFFF7C9
:10274800DBBA007CFFF7E8BA007CFFF7DDBA007C53
:10275800FFF7EABA10B50446FDF79BFC204610BD0A
:1027680070B5457C04460E4625B9007CFFF7ECFAA7
:10277800002805DD3146207CBDE87040FFF7B4BA7B
:10278800284670BD10B5044608461146002262600E
:102798004FF47A72A260054A2074226001226274A2
:1027A8001A46FFF799FA204610BD00BF843E080874
:1027B800007CFFF7C1BA000038B50C4D296811F04C
:1027C800010411D12846FDF766FC68B1084A214684
:1027D800084B0948FFF7D6FF2846FDF761FC074A72
:1027E8000749054800F050F9034838BD980D002006
:1027F8009C0D0020140D0020000D0020680400200E
:10280800392708087047F8B5064615460C468F184C
:10281800BC4206D0336814F8011B9B6830469847C1
:10282800F6E72846F8BD0022007CFFF7ADBA002184
:10283800007CFFF7B1BA0021007CFFF7B5BA002190
:10284800007CFFF7B9BA0021007CFFF7BDBA10B5CC
:102858000446FDF71EFC204610BD000010B50446D6
:1028680008464FF47A73A360044B0021207461601A
:102878002360FFF7B9FA204610BD00BFB43E080830
:1028880013B50024007C0094FFF766FAC0B202B0CA
:1028980010BDDBB2D2B2C9B2FFF7F2BF0022007C92
:1028A800FFF762BAC9B2FFF7F9BF0022007CFFF751
:1028B80063BA0021007CFFF78FBA08B50021007CBD
:1028C800FFF79AFAB0FA80F0400908BD08B5002170
:1028D800007CFFF799FAB0FA80F0400908BD0000C3
:1028E80010B504460F48FFF7D6FB28B1A4F10D0335
:1028F800022B01D8002010BD00F086F8FFF7D9FFA1
:1029080008B1012CF6D9FFF757FFFFF751FF18B1AF
:10291800A4F11203012BEDD92E2C8CBF002001202D
:1029280010BD00BF200E00202E2838B504460D46E5
:102938000AD8FF2908D0FFF7D3FF28B12946204637
:10294800BDE83840FFF738B938BD38B504460D46FC
:10295800FFF73AF9FF2810D0062804D84D2323FAA8
:1029680000F0C30709D42046FFF7BAFF28B129466B
:102978002046BDE83840FFF72FB938BD70B5114E75
:10298800114D124C00213046FFF7F2FA3046104E36
:102998002A46214600F078F801213046FFF7E8FA88
:1029A80030460C4E2A46214600F06EF80221304689
:1029B800FFF7DEFA2A4621463046BDE8704000F0AF
:1029C80063B800BF200E002068040020691F0808B3
:1029D800300E0020400E002013B5084C00231A4684
:1029E800194600932046FFF7B5FD2046044A0549DD
:1029F80002B0BDE8104000F047B800BF540E0020F8
:102A0800680400200525080838B50B4D296811F021
:102A180001040FD12846FDF73EFB58B1214607486F
:102A2800FFF71CFF2846FDF73BFB054A054903480D
:102A380000F02AF8014838BD5C0E0020740E002012
:102A4800680400200D28080810B50B4C2368DB0724
:102A58000FD42046FDF71FFB58B102210748FFF7A6
:102A6800FDFE2046FDF71CFB054A0649034800F019
:102A78000BF8024810BD00BF880E0020600E002031
:102A8800680400200D2808080B460146184600F087
:102A9800C1BF0000184B1A68D1075CBF01221A6039
:102AA800164B1A68D2075CBF01221A60144B1A68C9
:102AB800D0075CBF01221A60124B1A68D1075CBFAD
:102AC80001221A60104B1A68D2075CBF01221A60F3
:102AD8000E4B1A68D0075CBF01221A600C4B1A68AB
:102AE800D1075CBF01221A600A4B1A68D2075CBF83
:102AF80001221A60704700BFA80E0020A40E002013
:102B0800A00E00209C0E0020980E0020940E00209D
:102B1800900E00208C0E0020244B1A68D0075CBF52
:102B280001221A60224B1A68D1075CBF01221A6081
:102B3800204B1A68D2075CBF01221A601E4B1A6824
:102B4800D0075CBF01221A601C4B1A68D1075CBF12
:102B580001221A601A4B1A68D2075CBF01221A6058
:102B6800184B1A68D0075CBF01221A60164B1A6806
:102B7800D1075CBF01221A60144B1A68D2075CBFE8
:102B880001221A60124B1A68D0075CBF01221A6032
:102B9800104B1A68D1075CBF01221A600E4B1A68E5
:102BA800D2075CBF01221A60704700BFD80E002010
:102BB800D40E0020D00E0020CC0E0020C80E00201D
:102BC800C40E0020C00E0020BC0E0020B80E00204D
:102BD800B40E0020B00E0020AC0E0020244B1A6862
:102BE800D0075CBF01221A60224B1A68D1075CBF6C
:102BF80001221A60204B1A68D2075CBF01221A60B2
:102C08001E4B1A68D0075CBF01221A601C4B1A6859
:102C1800D1075CBF01221A601A4B1A68D2075CBF41
:102C280001221A60184B1A68D0075CBF01221A608B
:102C3800164B1A68D1075CBF01221A60144B1A6838
:102C4800D2075CBF01221A60124B1A68D0075CBF1A
:102C580001221A60104B1A68D1075CBF01221A6062
:102C68000E4B1A68D2075CBF01221A60704700BF7A
:102C7800080F0020040F0020000F0020FC0E002089
:102C8800F80E0020F40E0020F00E0020EC0E0020BC
:102C9800E80E0020E40E0020E00E0020DC0E0020EC
:102CA800184B1A68D1075CBF01221A60164B1A68C4
:102CB800D2075CBF01221A60144B1A68D0075CBFA8
:102CC80001221A60124B1A68D1075CBF01221A60F0
:102CD800104B1A68D2075CBF01221A600E4B1A68A3
:102CE800D0075CBF01221A600C4B1A68D1075CBF81
:102CF80001221A600A4B1A68D2075CBF01221A60C7
:102D0800704700BF280F0020240F0020200F00204C
:102D18001C0F0020180F0020140F0020100F002097
:102D28000C0F002081F0004102E000BF83F0004357
:102D380030B54FEA41044FEA430594EA050F08BF4E
:102D480090EA020F1FBF54EA000C55EA020C7FEA12
:102D5800645C7FEA655C00F0E2804FEA5454D4EB8F
:102D68005555B8BF6D420CDD2C4480EA020281EA59
:102D7800030382EA000083EA010180EA020281EA91
:102D88000303362D88BF30BD11F0004F4FEA0131E3
:102D98004FF4801C4CEA113102D0404261EB4101F2
:102DA80013F0004F4FEA03334CEA133302D0524278
:102DB80063EB430394EA050F00F0A780A4F1010434
:102DC800D5F1200E0DDB02FA0EFC22FA05F280186E
:102DD80041F1000103FA0EF2801843FA05F3594154
:102DE8000EE0A5F120050EF1200E012A03FA0EFCD3
:102DF80028BF4CF0020C43FA05F3C01851EBE371FD
:102E080001F0004507D54FF0000EDCF1000C7EEB19
:102E180000006EEB0101B1F5801F1BD3B1F5001F57
:102E28000CD349085FEA30004FEA3C0C04F1010476
:102E38004FEA445212F5800F80F09A80BCF1004F9F
:102E480008BF5FEA500C50F1000041EB045141EA21
:102E5800050130BD5FEA4C0C404141EB010111F422
:102E6800801FA4F10104E9D191F0000F04BF0146CD
:102E78000020B1FA81F308BF2033A3F10B03B3F1AB
:102E880020020CDA0C3208DD02F1140CC2F10C023B
:102E980001FA0CF021FA02F10CE002F11402D8BF99
:102EA800C2F1200C01FA02F120FA0CFCDCBF41EA65
:102EB8000C019040E41AA2BF01EB0451294330BD34
:102EC8006FEA04041F3C1CDA0C340EDC04F1140411
:102ED800C4F1200220FA04F001FA02F340EA0300E8
:102EE80021FA04F345EA030130BDC4F10C04C4F12E
:102EF800200220FA02F001FA04F340EA030029460E
:102F080030BD21FA04F0294630BD94F0000F83F457
:102F1800801306BF81F480110134013D4EE77FEA3A
:102F2800645C18BF7FEA655C29D094EA050F08BF86
:102F380090EA020F05D054EA000C04BF1946104667
:102F480030BD91EA030F1EBF0021002030BD5FEAAB
:102F5800545C05D14000494128BF41F0004130BDD3
:102F680014F580043CBF01F5801130BD01F0004527
:102F780045F0FE4141F470014FF0000030BD7FEA9A
:102F8800645C1ABF194610467FEA655C1CBF0B4695
:102F9800024650EA013406BF52EA033591EA030FAC
:102FA80041F4002130BD00BF90F0000F04BF0021A4
:102FB800704730B54FF4806404F132044FF00005D7
:102FC8004FF0000150E700BF90F0000F04BF002150
:102FD800704730B54FF4806404F1320410F00045B6
:102FE80048BF40424FF000013EE700BF42004FEAB1
:102FF800E2014FEA31014FEA02701FBF12F07F432E
:1030080093F07F4F81F06051704792F0000F14BF2A
:1030180093F07F4F704730B54FF4607401F000456E
:1030280021F0004120E700BF50EA010208BF7047C5
:1030380030B54FF000050AE050EA010208BF7047BA
:1030480030B511F0004502D5404261EB41014FF423
:10305800806404F132045FEA915C3FF4DCAE4FF027
:1030680003025FEADC0C18BF03325FEADC0C18BF0E
:10307800033202EBDC02C2F1200300FA03FC20FA5F
:1030880002F001FA03FE40EA0E0021FA02F11444AC
:10309800C1E600BF70B54FF0FF0C4CF4E06C1CEAC1
:1030A80011541DBF1CEA135594EA0C0F95EA0C0F36
:1030B80000F0DEF82C4481EA030621EA4C5123EAA9
:1030C8004C5350EA013518BF52EA033541F48011D8
:1030D80043F4801338D0A0FB02CE4FF00005E1FB8B
:1030E80002E506F00042E0FB03E54FF00006E1FBD5
:1030F80003569CF0000F18BF4EF0010EA4F1FF0418
:10310800B6F5007F64F5407404D25FEA4E0E6D4157
:1031180046EB060642EAC62141EA55514FEAC52068
:1031280040EA5E504FEACE2EB4F1FD0C88BFBCF5E4
:10313800E06F1ED8BEF1004F08BF5FEA500E50F195
:10314800000041EB045170BD06F0004646EA01015B
:1031580040EA020081EA0301B4EB5C04C2BFD4EB8D
:103168000C0541EA045170BD41F480114FF0000E86
:10317800013C00F3AB8014F1360FDEBF002001F0F4
:10318800004170BDC4F10004203C35DA0C341BDC6E
:1031980004F11404C4F1200500FA05F320FA04F040
:1031A80001FA05F240EA020001F0004221F0004174
:1031B80010EBD37021FA04F642EB06015EEA430EE7
:1031C80008BF20EAD37070BDC4F10C04C4F1200517
:1031D80000FA04F320FA05F001FA04F240EA0200CA
:1031E80001F0004110EBD37041F100015EEA430E9B
:1031F80008BF20EAD37070BDC4F1200500FA05F2BB
:103208004EEA020E20FA04F301FA05F243EA020339
:1032180021FA04F001F0004121FA04F220EA020048
:1032280000EBD3705EEA430E08BF20EAD37070BD8E
:1032380094F0000F0FD101F00046400041EB01016E
:1032480011F4801F08BF013CF7D041EA060195F050
:10325800000F18BF704703F00046520043EB03030A
:1032680013F4801F08BF013DF7D043EA06037047F7
:1032780094EA0C0F0CEA135518BF95EA0C0F0CD002
:1032880050EA410618BF52EA4306D1D181EA030148
:1032980001F000414FF0000070BD50EA410606BF42
:1032A8001046194652EA430619D094EA0C0F02D187
:1032B80050EA013613D195EA0C0F05D152EA0336CC
:1032C8001CBF104619460AD181EA030101F00041EA
:1032D80041F0FE4141F470014FF0000070BD41F033
:1032E800FE4141F4780170BD70B54FF0FF0C4CF40D
:1032F800E06C1CEA11541DBF1CEA135594EA0C0F2C
:1033080095EA0C0F00F0A7F8A4EB050481EA030E78
:1033180052EA03354FEA013100F088804FEA03335F
:103328004FF0805545EA131343EA12634FEA02222D
:1033380045EA111545EA10654FEA00260EF00041EE
:103348009D4208BF964244F1FD0404F5407402D240
:103358005B084FEA3202B61A65EB03055B084FEAD1
:1033680032024FF480104FF4002CB6EB020E75EBCE
:10337800030E22BFB61A754640EA0C005B084FEAF6
:103388003202B6EB020E75EB030E22BFB61A754673
:1033980040EA5C005B084FEA3202B6EB020E75EBBE
:1033A800030E22BFB61A754640EA9C005B084FEA36
:1033B8003202B6EB020E75EB030E22BFB61A754643
:1033C80040EADC0055EA060E18D04FEA051545EA32
:1033D80016754FEA06164FEAC30343EA52734FEADB
:1033E800C2025FEA1C1CC0D111F4801F0BD141EA54
:1033F80000014FF000004FF0004CB6E711F4801FB9
:1034080004BF01430020B4F1FD0C88BFBCF5E06F98
:103418003FF6AFAEB5EB030C04BFB6EB020C5FEAA8
:10342800500C50F1000041EB045170BD0EF0004EFD
:103438004EEA113114EB5C04C2BFD4EB0C0541EA2F
:10344800045170BD41F480114FF0000E013C90E62C
:1034580045EA060E8DE60CEA135594EA0C0F08BFF0
:1034680095EA0C0F3FF43BAF94EA0C0F0AD150EAEF
:1034780001347FF434AF95EA0C0F7FF425AF104682
:1034880019462CE795EA0C0F06D152EA03353FF4AA
:10349800FDAE1046194622E750EA410618BF52EA27
:1034A80043067FF4C5AE50EA41047FF40DAF52EAFB
:1034B80043057FF4EBAE12E74FEA4102B2F1E04375
:1034C80024BFB3F5001CDCF1FE5C0DD901F0004C03
:1034D8004FEAC0024CEA5070B2F1004F40EB830053
:1034E80008BF20F00100704711F0804F21D113F17F
:1034F8003872BCBF01F00040704741F480114FEAB8
:103508005252C2F11802C2F1200C10FA0CF320FA40
:1035180002F018BF40F001004FEAC1234FEAD3235D
:1035280003FA0CFC40EA0C0023FA02F34FEA4303C7
:10353800CCE77FEA625307D150EA01331EBF4FF050
:10354800FE4040F44000704701F0004040F0FE406B
:1035580040F40000704700BF80F0004002E000BF68
:1035680081F0004142001FBF5FEA410392EA030F66
:103578007FEA226C7FEA236C6AD04FEA1262D2EBB0
:103588001363C1BFD218414048404140B8BF5B42B5
:10359800192B88BF704710F0004F40F4000020F04E
:1035A8007F4018BF404211F0004F41F4000121F064
:1035B8007F4118BF494292EA030F3FD0A2F10102AE
:1035C80041FA03FC10EB0C00C3F1200301FA03F1EC
:1035D80000F0004302D5494260EB4000B0F5000F0F
:1035E80013D3B0F1807F06D340084FEA310102F1CE
:1035F8000102FE2A51D2B1F1004F40EBC25008BF80
:1036080020F0010040EA03007047490040EB000049
:1036180010F4000FA2F10102EDD1B0FA80FCACF178
:10362800080CB2EB0C0200FA0CF0AABF00EBC25077
:1036380052421843BCBFD0401843704792F0000F65
:1036480081F4000106BF80F400000132013BB5E7B8
:103658004FEA41037FEA226C18BF7FEA236C21D02E
:1036680092EA030F04D092F0000F08BF0846704793
:1036780090EA010F1CBF0020704712F07F4F04D161
:10368800400028BF40F00040704712F100723CBF74
:1036980000F50000704700F0004343F0FE4040F49E
:1036A800000070477FEA226216BF08467FEA23635C
:1036B8000146420206BF5FEA412390EA010F40F447
:1036C800800070474FF0000304E000BF10F0004393
:1036D80048BF40425FEA000C08BF704743F096437A
:1036E80001464FF000001CE050EA010208BF704795
:1036F8004FF000030AE000BF50EA010208BF70471C
:1037080011F0004302D5404261EB41015FEA010C30
:1037180002BF84460146002043F0B64308BFA3F128
:103728008053A3F50003BCFA8CF2083AA3EBC2530A
:1037380010DB01FA02FC634400FA02FCC2F1200229
:10374800BCF1004F20FA02F243EB020008BF20F060
:103758000100704702F1200201FA02FCC2F12002C6
:1037680050EA4C0021FA02F243EB020008BF20EABB
:10377800DC7070474FF0FF0C1CEAD0521EBF1CEAE9
:10378800D15392EA0C0F93EA0C0F6FD01A4480EAD7
:10379800010C400218BF5FEA41211ED04FF00063C0
:1037A80043EA501043EA5111A0FB01310CF00040EC
:1037B800B1F5000F3EBF490041EAD3715B0040EA12
:1037C800010062F17F02FD2A1DD8B3F1004F40EBE2
:1037D800C25008BF20F00100704790F0000F0CF0B5
:1037E800004C08BF49024CEA502040EA51207F3A79
:1037F800C2BFD2F1FF0340EAC250704740F4000054
:103808004FF00003013A5DDC12F1190FDCBF00F044
:1038180000407047C2F10002410021FA02F1C2F1F2
:10382800200200FA02FC5FEA310040F1000053EA8E
:103838004C0308BF20EADC70704792F0000F00F0DC
:10384800004C02BF400010F4000F013AF9D040EAE2
:103858000C0093F0000F01F0004C02BF490011F476
:10386800000F013BF9D041EA0C018FE70CEAD15374
:1038780092EA0C0F18BF93EA0C0F0AD030F0004CF4
:1038880018BF31F0004CD8D180EA010000F00040A8
:10389800704790F0000F17BF90F0004F084691F066
:1038A800000F91F0004F14D092EA0C0F01D14202A0
:1038B8000FD193EA0C0F03D14B0218BF084608D169
:1038C80080EA010000F0004040F0FE4040F40000B3
:1038D800704740F0FE4040F4400070474FF0FF0C46
:1038E8001CEAD0521EBF1CEAD15392EA0C0F93EA8D
:1038F8000C0F69D0A2EB030280EA010C49024FEADF
:10390800402037D04FF0805343EA111143EA101397
:103918000CF000408B4238BF5B0042F17D024FF44F
:10392800000C8B4224BF5B1A40EA0C00B3EB510F2A
:1039380024BFA3EB510340EA5C00B3EB910F24BF13
:10394800A3EB910340EA9C00B3EBD10F24BFA3EB98
:10395800D10340EADC001B0118BF5FEA1C1CE0D160
:10396800FD2A3FF650AF8B4240EBC25008BF20F013
:10397800010070470CF0004C4CEA50207F32C2BF67
:10398800D2F1FF0340EAC250704740F400004FF004
:103998000003013A37E792F0000F00F0004C02BF35
:1039A800400010F4000F013AF9D040EA0C0093F0FF
:1039B800000F01F0004C02BF490011F4000F013B59
:1039C800F9D041EA0C0195E70CEAD15392EA0C0FC1
:1039D80008D142027FF47DAF93EA0C0F7FF470AFF9
:1039E800084676E793EA0C0F04D14B023FF44CAF3C
:1039F80008466EE730F0004C18BF31F0004CCAD1D1
:103A080030F000427FF45CAF31F000437FF43CAF0C
:103A18005FE700BF10B5054C13462CB10A460146B6
:103A28000220AFF3008010BD204610BD000000004A
:103A380010B501390244904207D010F8013B11F843
:103A4800014FA342F7D0181B10BD002010BD10B5C0
:103A5800431E0A44914204D011F8014B03F8014F68
:103A6800F8E710BD03460244934202D003F8011B55
:103A7800FAE7704738B5124B05461C68A36BD3B9F3
:103A88001820FEF74DFA43F20E33A06303804AF67E
:103A9800CD33438041F2342383804EF26D63C3807B
:103AA8004DF6EC630381052343810B2383810122B7
:103AB8000023C0E90423A36B00221D615A6138BDAD
:103AC80064040020034613F8012B002AFBD1181ABE
:103AD800013870471D0008085D00080889000808BB
:103AE8008D00080800000000000000000000000031
:103AF800CB000808CD000808EB000808E500080816
:103B0800AF00080841010808DF000808D9000808C4
:103B180000000000000000001B010808130108084D
:103B28000B010808030108085479706520616E7953
:103B38002063686172616374657220746F207374A6
:103B48006172740065312E747874006F70656E69E7
:103B58006E672065312E74787420666F72207772D4
:103B6800697465206661696C65642028312900578D
:103B7800726974696E6720746F2065312E74787469
:103B88002E2E2E0074657374696E6720312C2032D6
:103B98002C20332E0066696C6553697A653A2025B6
:103BA800640A00646F6E652E006F70656E696E67DB
:103BB8002065312E74787420666F72207265616496
:103BC800206661696C6564202832290065312E748D
:103BD800787420636F6E74656E743A006F70656EEA
:103BE800696E672065312E74787420666F7220774D
:103BF80072697465206661696C65642028332900E0
:103C080025642C20252E3032662E20252E30326653
:103C180000000000200E0020300E0020400E002082
:103C280000000000000000006D1908087D19080850
:103C380069190808F91908081D1A08080D1A08084A
:103C4800611A08085344206572726F72436F646585
:103C58003A203058002C3058006572726F723A2042
:103C68000043616E27742061636365737320534456
:103C780020636172642E20446F206E6F7420726519
:103C8800666F726D61742E004E6F20636172642CD2
:103C98002077726F6E6720636869702073656C6542
:103CA80063742070696E2C206F7220535049207005
:103CB800726F626C656D3F00496E76616C69642055
:103CC800666F726D61742C207265666F726D6174B7
:103CD8002053442E0043616E2774206F70656E2058
:103CE800726F6F74206469726563746F72792E00E5
:103CF8004E6F206572726F7220666F756E642E004B
:103D08000000000000000000691F08086B1F080879
:103D180000081018202830386C6E00666E00636F3B
:103D280064650064657461696C000D0A00253031B2
:103D3800307520005D20002564002C200028293AD9
:103D48002000205B00636F6465203D20002569002A
:103D580064657461696C73203D200062617564005C
:103D680053657269616C0055534253657269616CA1
:103D780031007479706500706172616D00636D6403
:103D880000696400686E64007374726D0066696C23
:103D980074006C766C0061646448616E646C657272
:103DA8000072656D6F766548616E646C657200655A
:103DB8006E756D48616E646C657273004A534F4E40
:103DC80053747265616D4C6F6748616E646C65729F
:103DD80000617070006E6F6E6500747261636500DB
:103DE800696E666F007761726E006572726F72003D
:103DF80070616E696300616C6C005A00252B30336A
:103E0800643A253032750025592D256D2D256454C9
:103E180025483A254D3A2553257A0061736374691C
:103E28006D65000000000000000000001325080870
:103E38000525080807250808000000000000000004
:103E480079250808BD25080897250808E5200808E9
:103E5800912508087B25080883250808B725080840
:103E68008B250808752508080000000000000000E0
:103E7800F1260808000000000000000039270808A3
:103E88005D27080869270808E52008084527080865
:103E9800512708084B270808572708083B27080810
:103EA8003F27080800000000000000000D2808084F
:103EB800572808082F2808080F280808372808084E
:103EC8003F280808472808084F280808000000006D
:103ED80000000000000000000000000000000000DA
:103EE80000000000000000000000000000000000CA
:103EF80000000000000000000000000000000000BA
:103F080000000000000000000000000000000000A9
:103F18000000000000000000000000000000000099
:103F28000000000000000000000000004300000046
:103F3800B10308087104080875040808790408081A
:103F4800910A0808950A0808990A08089D0A0808A5
:103F58003D11080861110808651108087D14080852
:103F680081140808851408084F1908085319080807
:103F780057190808A91A0808AD1B0808A520080839
:103F88002D2208083D22080875220808FD26080881
:103F980085290808E12908089D2A0808212B08080E
:083FA800E52B0808A92C08080C
:043FB000000000000D
:103FB400233E080800000000D43E0808F43E080828
:103FC400143F08080000000000000000000000008A
:103FD40000000000343F080800000000000000005A
:103FE40000000000000000000000000000000000CD
:103FF40000000000000000000000000000000000BD
:1040040000000000000000000000000000000000AC
:0840140000000000040400207C
:10401C00FFFFFFFF00000102030405060708090A61
:10402C000B0C0D0E0F101112131415161718191A5C
:08403C001B1C1D1E1F202800A3
:044044007856341264
:0400000508080018CF
:00000001FF
